:03000000020006F5
:20005F00E4F508F509750AC0750BF9750CA4750DB0750E99750F927510827511F8751280D5
:1F007F007513907514FF751509F516850A1785141885141985141A751B04F51D020003BD
:0300030002009E5A
:20009E00120428E51B24FB4035E51B75F003A49000B1730200C00200C50200CA0200CF0288
:2000BE0000D712012B80DC12014A80D71201A280D212022D12031380CA1200E180C5751B7B
:2000DE000080C07582201203F3AF828F907E00EF20E7027E01EF20E603430602EF20E50324
:2000FE00430604EF20E403430608EEF4F51C7582201203D99000641201E002011B20B50973
:20011E00E51B04F51B75820122758200227FFF8F90900064C0071201E0D0078F06EE14FFC2
:20013E00C00712011BE582D00760E4227FFC7E00BE060050248F908F05ED2DFD74014DFF4C
:20015E00900064C007C0061201E012011BE582D006D0076001220E80D77E00BE060050232E
:20017E00EFF590C313FD74804DFF900064C007C0061201E012011BE582D006D007600122A1
:20019E000E80D8227FFC7E3F7D00BD06005032EE5FF5908F04EC2CFC74014CFFEEC313FCC6
:2001BE0074804CFE900064C007C006C0051201E012011BE582D005D006D0076001220D8083
:2001DE00C922AE82AF83EE4F600F7D98ED60031D80FA1EBEFF011F80ED22AE82AF837C00A4
:2001FE007D00C3EC9EED9F50070CBC00F50D80F22220B20C151574FFB51502151602022D33
:20021E0020B30B0515E4B51502051602022D22C3740F951574A78516F063F08095F0500567
:20023E00E4F515F516E51630E70675150F7516277590FFAE15AF16850A17851418851419AF
:20025E0085141AEE4F602E751E0A751F008E828F83C007C0061204FBAC82D006D007EC2426
:20027E000AF98717751E0A751F008E828F831204D2AE82AF83EE4F602E751E0A751F008E98
:20029E00828F83C007C0061204FBAC82D006D007EC240AF98718751E0A751F008E828F832E
:2002BE001204D2AE82AF83EE4F602E751E0A751F008E828F83C007C0061204FBAC82D00616
:2002DE00D007EC240AF98719751E0A751F008E828F831204D2AE82AF83EE4F6017751E0A88
:2002FE00751F008E828F831204FBAE82AF83EE240AF9871A227F007E00851A80C2A09000D1
:20031E0002C007C0061201E0D2A0851980C2A19000021201E0D2A1851880C2A2900002122D
:20033E0001E0D2A2851780C2A39000021201E0D006D007D2A30F0EEF24E850127F00C00762
:20035E00C00612011BE582D006D007600122EE24F550A6C00712020FD0077E00020317D2CA
:20037E0086D287C286C28722C286D287D28622AF827E00BE0800501374805F24FF9286D27A
:20039E00878F05ED2DFFC2870E80E8D287D28730860475820022C287758201227F007E0067
:2003BE00BE080050138F05ED2DFDD287A286E433FC4DFFC2870E80E88F8222E5822582FF6C
:2003DE00C00712037DD0078F8212038D851C8212038D020386AF82D2817E00EF2FFF430763
:2003FE0001C007C00612037DD006D0078F82C00612038DE582D00660051203BAAE82C00632
:20041E00120386D006C2818E82229000321201E07582031204969000051201E075820312E9
:20043E0004969000051201E075820312049675822F1204969000321201E07582441204B44A
:20045E007582441204B47582440204B4AF82E51D420774044FF51C758227C0071203D990CD
:20047E0000011201E0D00774FB4FF51C7582271203D99000010201E0AF82751D0074F05FBE
:20049E00F582C00712046AD007EFC454F0FF74F05FF58202046AAF82751D0174F05FF5820B
:1404BE00C00712046AD007EFC454F0FF74F05FF58202046A6C
:2004D2007A10E4FBFCE58225E0F582E58333F583EB33FBEC33FCEB951EF5F0EC951F400612
:0904F200FCABF0438201DADD22CB
:06003500E478FFF6D8FD9F
:200013007900E94400601B7A0090054C780175A000E493F2A308B8000205A0D9F4DAF27542
:02003300A0FF2C
:2004FB00E51E451F60467A01E51E25E0F51EE51F334012F51FE582951EE583951F40030A1E
:20051B0080E6C3E51F13F51FE51E13F51EC3E582951EF5F0E583951F4005F58385F082C3EE
:0D053B00E51F13F51FE51E13F51EDAE12282
:20003B007800E84400600A790175A000E4F309D8FC7800E84400600C7900900001E4F0A3C3
:04005B00D8FCD9FAFA
:0D00060075811F120548E5826003020003AA
:040548007582002296
:00000001FF
