                                      1 ;--------------------------------------------------------
                                      2 ; File Created by SDCC : free open source ANSI-C Compiler
                                      3 ; Version 4.0.0 #11528 (Linux)
                                      4 ;--------------------------------------------------------
                                      5 	.module mini51
                                      6 	.optsdcc -mmcs51 --model-small
                                      7 	
                                      8 ;--------------------------------------------------------
                                      9 ; Public variables in this module
                                     10 ;--------------------------------------------------------
                                     11 	.globl _i2cRead
                                     12 	.globl _i2cSend
                                     13 	.globl _i2cStop
                                     14 	.globl _i2cStart
                                     15 	.globl _numChange
                                     16 	.globl _delayUs
                                     17 	.globl _SCL
                                     18 	.globl _SDA
                                     19 	.globl _CY
                                     20 	.globl _AC
                                     21 	.globl _F0
                                     22 	.globl _RS1
                                     23 	.globl _RS0
                                     24 	.globl _OV
                                     25 	.globl _F1
                                     26 	.globl _P
                                     27 	.globl _PS
                                     28 	.globl _PT1
                                     29 	.globl _PX1
                                     30 	.globl _PT0
                                     31 	.globl _PX0
                                     32 	.globl _RD
                                     33 	.globl _WR
                                     34 	.globl _T1
                                     35 	.globl _T0
                                     36 	.globl _INT1
                                     37 	.globl _INT0
                                     38 	.globl _TXD
                                     39 	.globl _RXD
                                     40 	.globl _P3_7
                                     41 	.globl _P3_6
                                     42 	.globl _P3_5
                                     43 	.globl _P3_4
                                     44 	.globl _P3_3
                                     45 	.globl _P3_2
                                     46 	.globl _P3_1
                                     47 	.globl _P3_0
                                     48 	.globl _EA
                                     49 	.globl _ES
                                     50 	.globl _ET1
                                     51 	.globl _EX1
                                     52 	.globl _ET0
                                     53 	.globl _EX0
                                     54 	.globl _P2_7
                                     55 	.globl _P2_6
                                     56 	.globl _P2_5
                                     57 	.globl _P2_4
                                     58 	.globl _P2_3
                                     59 	.globl _P2_2
                                     60 	.globl _P2_1
                                     61 	.globl _P2_0
                                     62 	.globl _SM0
                                     63 	.globl _SM1
                                     64 	.globl _SM2
                                     65 	.globl _REN
                                     66 	.globl _TB8
                                     67 	.globl _RB8
                                     68 	.globl _TI
                                     69 	.globl _RI
                                     70 	.globl _P1_7
                                     71 	.globl _P1_6
                                     72 	.globl _P1_5
                                     73 	.globl _P1_4
                                     74 	.globl _P1_3
                                     75 	.globl _P1_2
                                     76 	.globl _P1_1
                                     77 	.globl _P1_0
                                     78 	.globl _TF1
                                     79 	.globl _TR1
                                     80 	.globl _TF0
                                     81 	.globl _TR0
                                     82 	.globl _IE1
                                     83 	.globl _IT1
                                     84 	.globl _IE0
                                     85 	.globl _IT0
                                     86 	.globl _P0_7
                                     87 	.globl _P0_6
                                     88 	.globl _P0_5
                                     89 	.globl _P0_4
                                     90 	.globl _P0_3
                                     91 	.globl _P0_2
                                     92 	.globl _P0_1
                                     93 	.globl _P0_0
                                     94 	.globl _B
                                     95 	.globl _ACC
                                     96 	.globl _PSW
                                     97 	.globl _IP
                                     98 	.globl _P3
                                     99 	.globl _IE
                                    100 	.globl _P2
                                    101 	.globl _SBUF
                                    102 	.globl _SCON
                                    103 	.globl _P1
                                    104 	.globl _TH1
                                    105 	.globl _TH0
                                    106 	.globl _TL1
                                    107 	.globl _TL0
                                    108 	.globl _TMOD
                                    109 	.globl _TCON
                                    110 	.globl _PCON
                                    111 	.globl _DPH
                                    112 	.globl _DPL
                                    113 	.globl _SP
                                    114 	.globl _P0
                                    115 	.globl _rs
                                    116 	.globl _i2cSendData_PARM_2
                                    117 	.globl _sel
                                    118 	.globl _num1
                                    119 	.globl _num2
                                    120 	.globl _num3
                                    121 	.globl _num4
                                    122 	.globl _num
                                    123 	.globl _nums
                                    124 	.globl _dispNum
                                    125 	.globl _main
                                    126 	.globl _readButtonsShowLeds
                                    127 	.globl _modeChanged
                                    128 	.globl _binaryCt
                                    129 	.globl _cylon
                                    130 	.globl _dualCylon
                                    131 	.globl _delay
                                    132 	.globl _configNumDisplay
                                    133 	.globl _showNums
                                    134 	.globl _i2cSendData
                                    135 	.globl _i2cReadData
                                    136 	.globl _initLcd
                                    137 	.globl _lcdSendNibble
                                    138 	.globl _lcdSendCmd
                                    139 	.globl _lcdSendData
                                    140 ;--------------------------------------------------------
                                    141 ; special function registers
                                    142 ;--------------------------------------------------------
                                    143 	.area RSEG    (ABS,DATA)
      000000                        144 	.org 0x0000
                           000080   145 _P0	=	0x0080
                           000081   146 _SP	=	0x0081
                           000082   147 _DPL	=	0x0082
                           000083   148 _DPH	=	0x0083
                           000087   149 _PCON	=	0x0087
                           000088   150 _TCON	=	0x0088
                           000089   151 _TMOD	=	0x0089
                           00008A   152 _TL0	=	0x008a
                           00008B   153 _TL1	=	0x008b
                           00008C   154 _TH0	=	0x008c
                           00008D   155 _TH1	=	0x008d
                           000090   156 _P1	=	0x0090
                           000098   157 _SCON	=	0x0098
                           000099   158 _SBUF	=	0x0099
                           0000A0   159 _P2	=	0x00a0
                           0000A8   160 _IE	=	0x00a8
                           0000B0   161 _P3	=	0x00b0
                           0000B8   162 _IP	=	0x00b8
                           0000D0   163 _PSW	=	0x00d0
                           0000E0   164 _ACC	=	0x00e0
                           0000F0   165 _B	=	0x00f0
                                    166 ;--------------------------------------------------------
                                    167 ; special function bits
                                    168 ;--------------------------------------------------------
                                    169 	.area RSEG    (ABS,DATA)
      000000                        170 	.org 0x0000
                           000080   171 _P0_0	=	0x0080
                           000081   172 _P0_1	=	0x0081
                           000082   173 _P0_2	=	0x0082
                           000083   174 _P0_3	=	0x0083
                           000084   175 _P0_4	=	0x0084
                           000085   176 _P0_5	=	0x0085
                           000086   177 _P0_6	=	0x0086
                           000087   178 _P0_7	=	0x0087
                           000088   179 _IT0	=	0x0088
                           000089   180 _IE0	=	0x0089
                           00008A   181 _IT1	=	0x008a
                           00008B   182 _IE1	=	0x008b
                           00008C   183 _TR0	=	0x008c
                           00008D   184 _TF0	=	0x008d
                           00008E   185 _TR1	=	0x008e
                           00008F   186 _TF1	=	0x008f
                           000090   187 _P1_0	=	0x0090
                           000091   188 _P1_1	=	0x0091
                           000092   189 _P1_2	=	0x0092
                           000093   190 _P1_3	=	0x0093
                           000094   191 _P1_4	=	0x0094
                           000095   192 _P1_5	=	0x0095
                           000096   193 _P1_6	=	0x0096
                           000097   194 _P1_7	=	0x0097
                           000098   195 _RI	=	0x0098
                           000099   196 _TI	=	0x0099
                           00009A   197 _RB8	=	0x009a
                           00009B   198 _TB8	=	0x009b
                           00009C   199 _REN	=	0x009c
                           00009D   200 _SM2	=	0x009d
                           00009E   201 _SM1	=	0x009e
                           00009F   202 _SM0	=	0x009f
                           0000A0   203 _P2_0	=	0x00a0
                           0000A1   204 _P2_1	=	0x00a1
                           0000A2   205 _P2_2	=	0x00a2
                           0000A3   206 _P2_3	=	0x00a3
                           0000A4   207 _P2_4	=	0x00a4
                           0000A5   208 _P2_5	=	0x00a5
                           0000A6   209 _P2_6	=	0x00a6
                           0000A7   210 _P2_7	=	0x00a7
                           0000A8   211 _EX0	=	0x00a8
                           0000A9   212 _ET0	=	0x00a9
                           0000AA   213 _EX1	=	0x00aa
                           0000AB   214 _ET1	=	0x00ab
                           0000AC   215 _ES	=	0x00ac
                           0000AF   216 _EA	=	0x00af
                           0000B0   217 _P3_0	=	0x00b0
                           0000B1   218 _P3_1	=	0x00b1
                           0000B2   219 _P3_2	=	0x00b2
                           0000B3   220 _P3_3	=	0x00b3
                           0000B4   221 _P3_4	=	0x00b4
                           0000B5   222 _P3_5	=	0x00b5
                           0000B6   223 _P3_6	=	0x00b6
                           0000B7   224 _P3_7	=	0x00b7
                           0000B0   225 _RXD	=	0x00b0
                           0000B1   226 _TXD	=	0x00b1
                           0000B2   227 _INT0	=	0x00b2
                           0000B3   228 _INT1	=	0x00b3
                           0000B4   229 _T0	=	0x00b4
                           0000B5   230 _T1	=	0x00b5
                           0000B6   231 _WR	=	0x00b6
                           0000B7   232 _RD	=	0x00b7
                           0000B8   233 _PX0	=	0x00b8
                           0000B9   234 _PT0	=	0x00b9
                           0000BA   235 _PX1	=	0x00ba
                           0000BB   236 _PT1	=	0x00bb
                           0000BC   237 _PS	=	0x00bc
                           0000D0   238 _P	=	0x00d0
                           0000D1   239 _F1	=	0x00d1
                           0000D2   240 _OV	=	0x00d2
                           0000D3   241 _RS0	=	0x00d3
                           0000D4   242 _RS1	=	0x00d4
                           0000D5   243 _F0	=	0x00d5
                           0000D6   244 _AC	=	0x00d6
                           0000D7   245 _CY	=	0x00d7
                           000086   246 _SDA	=	0x0086
                           000087   247 _SCL	=	0x0087
                                    248 ;--------------------------------------------------------
                                    249 ; overlayable register banks
                                    250 ;--------------------------------------------------------
                                    251 	.area REG_BANK_0	(REL,OVR,DATA)
      000000                        252 	.ds 8
                                    253 ;--------------------------------------------------------
                                    254 ; internal ram data
                                    255 ;--------------------------------------------------------
                                    256 	.area DSEG    (DATA)
      000008                        257 _dispNum::
      000008                        258 	.ds 2
      00000A                        259 _nums::
      00000A                        260 	.ds 11
      000015                        261 _num::
      000015                        262 	.ds 2
      000017                        263 _num4::
      000017                        264 	.ds 1
      000018                        265 _num3::
      000018                        266 	.ds 1
      000019                        267 _num2::
      000019                        268 	.ds 1
      00001A                        269 _num1::
      00001A                        270 	.ds 1
      00001B                        271 _sel::
      00001B                        272 	.ds 1
      00001C                        273 _i2cSendData_PARM_2:
      00001C                        274 	.ds 1
      00001D                        275 _rs::
      00001D                        276 	.ds 1
                                    277 ;--------------------------------------------------------
                                    278 ; overlayable items in internal ram 
                                    279 ;--------------------------------------------------------
                                    280 	.area	OSEG    (OVR,DATA)
                                    281 	.area	OSEG    (OVR,DATA)
                                    282 	.area	OSEG    (OVR,DATA)
                                    283 	.area	OSEG    (OVR,DATA)
                                    284 ;--------------------------------------------------------
                                    285 ; Stack segment in internal ram 
                                    286 ;--------------------------------------------------------
                                    287 	.area	SSEG
      000020                        288 __start__stack:
      000020                        289 	.ds	1
                                    290 
                                    291 ;--------------------------------------------------------
                                    292 ; indirectly addressable internal ram data
                                    293 ;--------------------------------------------------------
                                    294 	.area ISEG    (DATA)
                                    295 ;--------------------------------------------------------
                                    296 ; absolute internal ram data
                                    297 ;--------------------------------------------------------
                                    298 	.area IABS    (ABS,DATA)
                                    299 	.area IABS    (ABS,DATA)
                                    300 ;--------------------------------------------------------
                                    301 ; bit data
                                    302 ;--------------------------------------------------------
                                    303 	.area BSEG    (BIT)
                                    304 ;--------------------------------------------------------
                                    305 ; paged external ram data
                                    306 ;--------------------------------------------------------
                                    307 	.area PSEG    (PAG,XDATA)
                                    308 ;--------------------------------------------------------
                                    309 ; external ram data
                                    310 ;--------------------------------------------------------
                                    311 	.area XSEG    (XDATA)
                                    312 ;--------------------------------------------------------
                                    313 ; absolute external ram data
                                    314 ;--------------------------------------------------------
                                    315 	.area XABS    (ABS,XDATA)
                                    316 ;--------------------------------------------------------
                                    317 ; external initialized ram data
                                    318 ;--------------------------------------------------------
                                    319 	.area XISEG   (XDATA)
                                    320 	.area HOME    (CODE)
                                    321 	.area GSINIT0 (CODE)
                                    322 	.area GSINIT1 (CODE)
                                    323 	.area GSINIT2 (CODE)
                                    324 	.area GSINIT3 (CODE)
                                    325 	.area GSINIT4 (CODE)
                                    326 	.area GSINIT5 (CODE)
                                    327 	.area GSINIT  (CODE)
                                    328 	.area GSFINAL (CODE)
                                    329 	.area CSEG    (CODE)
                                    330 ;--------------------------------------------------------
                                    331 ; interrupt vector 
                                    332 ;--------------------------------------------------------
                                    333 	.area HOME    (CODE)
      000000                        334 __interrupt_vect:
      000000 02 00 06         [24]  335 	ljmp	__sdcc_gsinit_startup
                                    336 ;--------------------------------------------------------
                                    337 ; global & static initialisations
                                    338 ;--------------------------------------------------------
                                    339 	.area HOME    (CODE)
                                    340 	.area GSINIT  (CODE)
                                    341 	.area GSFINAL (CODE)
                                    342 	.area GSINIT  (CODE)
                                    343 	.globl __sdcc_gsinit_startup
                                    344 	.globl __sdcc_program_startup
                                    345 	.globl __start__stack
                                    346 	.globl __mcs51_genXINIT
                                    347 	.globl __mcs51_genXRAMCLEAR
                                    348 	.globl __mcs51_genRAMCLEAR
                                    349 ;	mini51.c:14: unsigned int dispNum = 0;
      00005F E4               [12]  350 	clr	a
      000060 F5 08            [12]  351 	mov	_dispNum,a
      000062 F5 09            [12]  352 	mov	(_dispNum + 1),a
                                    353 ;	mini51.c:15: unsigned char nums[] = { 0xC0, 0xF9, 0xA4, 0xB0, 0x99, 0x92, 0x82, 0xF8, 0x80, 0x90, 0xFF };
      000064 75 0A C0         [24]  354 	mov	_nums,#0xc0
      000067 75 0B F9         [24]  355 	mov	(_nums + 0x0001),#0xf9
      00006A 75 0C A4         [24]  356 	mov	(_nums + 0x0002),#0xa4
      00006D 75 0D B0         [24]  357 	mov	(_nums + 0x0003),#0xb0
      000070 75 0E 99         [24]  358 	mov	(_nums + 0x0004),#0x99
      000073 75 0F 92         [24]  359 	mov	(_nums + 0x0005),#0x92
      000076 75 10 82         [24]  360 	mov	(_nums + 0x0006),#0x82
      000079 75 11 F8         [24]  361 	mov	(_nums + 0x0007),#0xf8
      00007C 75 12 80         [24]  362 	mov	(_nums + 0x0008),#0x80
      00007F 75 13 90         [24]  363 	mov	(_nums + 0x0009),#0x90
      000082 75 14 FF         [24]  364 	mov	(_nums + 0x000a),#0xff
                                    365 ;	mini51.c:16: int num = 9;
      000085 75 15 09         [24]  366 	mov	_num,#0x09
                                    367 ;	1-genFromRTrack replaced	mov	(_num + 1),#0x00
      000088 F5 16            [12]  368 	mov	(_num + 1),a
                                    369 ;	mini51.c:18: unsigned char num4 = nums[0];
      00008A 85 0A 17         [24]  370 	mov	_num4,_nums
                                    371 ;	mini51.c:19: unsigned char num3 = nums[10];
      00008D 85 14 18         [24]  372 	mov	_num3,(_nums + 0x000a)
                                    373 ;	mini51.c:20: unsigned char num2 = nums[10];
      000090 85 14 19         [24]  374 	mov	_num2,(_nums + 0x000a)
                                    375 ;	mini51.c:21: unsigned char num1 = nums[10];
      000093 85 14 1A         [24]  376 	mov	_num1,(_nums + 0x000a)
                                    377 ;	mini51.c:22: unsigned char sel = 4; // used in main selection
      000096 75 1B 04         [24]  378 	mov	_sel,#0x04
                                    379 ;	mini51.c:378: unsigned char rs = 0;
                                    380 ;	1-genFromRTrack replaced	mov	_rs,#0x00
      000099 F5 1D            [12]  381 	mov	_rs,a
                                    382 	.area GSFINAL (CODE)
      00009B 02 00 03         [24]  383 	ljmp	__sdcc_program_startup
                                    384 ;--------------------------------------------------------
                                    385 ; Home
                                    386 ;--------------------------------------------------------
                                    387 	.area HOME    (CODE)
                                    388 	.area HOME    (CODE)
      000003                        389 __sdcc_program_startup:
      000003 02 00 9E         [24]  390 	ljmp	_main
                                    391 ;	return from main will return to caller
                                    392 ;--------------------------------------------------------
                                    393 ; code
                                    394 ;--------------------------------------------------------
                                    395 	.area CSEG    (CODE)
                                    396 ;------------------------------------------------------------
                                    397 ;Allocation info for local variables in function 'main'
                                    398 ;------------------------------------------------------------
                                    399 ;	mini51.c:24: void main(void)
                                    400 ;	-----------------------------------------
                                    401 ;	 function main
                                    402 ;	-----------------------------------------
      00009E                        403 _main:
                           000007   404 	ar7 = 0x07
                           000006   405 	ar6 = 0x06
                           000005   406 	ar5 = 0x05
                           000004   407 	ar4 = 0x04
                           000003   408 	ar3 = 0x03
                           000002   409 	ar2 = 0x02
                           000001   410 	ar1 = 0x01
                           000000   411 	ar0 = 0x00
                                    412 ;	mini51.c:26: initLcd();
      00009E 12 04 28         [24]  413 	lcall	_initLcd
                                    414 ;	mini51.c:28: while(1){
      0000A1                        415 00109$:
                                    416 ;	mini51.c:31: switch (sel)
      0000A1 E5 1B            [12]  417 	mov	a,_sel
      0000A3 24 FB            [12]  418 	add	a,#0xff - 0x04
      0000A5 40 35            [24]  419 	jc	00106$
      0000A7 E5 1B            [12]  420 	mov	a,_sel
      0000A9 75 F0 03         [24]  421 	mov	b,#0x03
      0000AC A4               [48]  422 	mul	ab
      0000AD 90 00 B1         [24]  423 	mov	dptr,#00122$
      0000B0 73               [24]  424 	jmp	@a+dptr
      0000B1                        425 00122$:
      0000B1 02 00 C0         [24]  426 	ljmp	00101$
      0000B4 02 00 C5         [24]  427 	ljmp	00102$
      0000B7 02 00 CA         [24]  428 	ljmp	00103$
      0000BA 02 00 CF         [24]  429 	ljmp	00104$
      0000BD 02 00 D7         [24]  430 	ljmp	00105$
                                    431 ;	mini51.c:33: case 0:
      0000C0                        432 00101$:
                                    433 ;	mini51.c:34: binaryCt();
      0000C0 12 01 2B         [24]  434 	lcall	_binaryCt
                                    435 ;	mini51.c:35: break;
                                    436 ;	mini51.c:36: case 1:
      0000C3 80 DC            [24]  437 	sjmp	00109$
      0000C5                        438 00102$:
                                    439 ;	mini51.c:37: cylon();
      0000C5 12 01 4A         [24]  440 	lcall	_cylon
                                    441 ;	mini51.c:38: break;
                                    442 ;	mini51.c:40: case 2:
      0000C8 80 D7            [24]  443 	sjmp	00109$
      0000CA                        444 00103$:
                                    445 ;	mini51.c:41: dualCylon();
      0000CA 12 01 A2         [24]  446 	lcall	_dualCylon
                                    447 ;	mini51.c:42: break;
                                    448 ;	mini51.c:44: case 3:
      0000CD 80 D2            [24]  449 	sjmp	00109$
      0000CF                        450 00104$:
                                    451 ;	mini51.c:45: configNumDisplay();
      0000CF 12 02 2D         [24]  452 	lcall	_configNumDisplay
                                    453 ;	mini51.c:46: showNums();
      0000D2 12 03 13         [24]  454 	lcall	_showNums
                                    455 ;	mini51.c:47: break;
                                    456 ;	mini51.c:49: case 4:
      0000D5 80 CA            [24]  457 	sjmp	00109$
      0000D7                        458 00105$:
                                    459 ;	mini51.c:50: readButtonsShowLeds();
      0000D7 12 00 E1         [24]  460 	lcall	_readButtonsShowLeds
                                    461 ;	mini51.c:51: break;
                                    462 ;	mini51.c:52: default:
      0000DA 80 C5            [24]  463 	sjmp	00109$
      0000DC                        464 00106$:
                                    465 ;	mini51.c:53: sel = 0;
      0000DC 75 1B 00         [24]  466 	mov	_sel,#0x00
                                    467 ;	mini51.c:55: }
                                    468 ;	mini51.c:59: }
      0000DF 80 C0            [24]  469 	sjmp	00109$
                                    470 ;------------------------------------------------------------
                                    471 ;Allocation info for local variables in function 'readButtonsShowLeds'
                                    472 ;------------------------------------------------------------
                                    473 ;reading                   Allocated to registers r7 
                                    474 ;data                      Allocated to registers r6 
                                    475 ;------------------------------------------------------------
                                    476 ;	mini51.c:60: void readButtonsShowLeds(){
                                    477 ;	-----------------------------------------
                                    478 ;	 function readButtonsShowLeds
                                    479 ;	-----------------------------------------
      0000E1                        480 _readButtonsShowLeds:
                                    481 ;	mini51.c:61: unsigned char reading = i2cReadData(LED_I2C_ADDR);
      0000E1 75 82 20         [24]  482 	mov	dpl,#0x20
      0000E4 12 03 F3         [24]  483 	lcall	_i2cReadData
      0000E7 AF 82            [24]  484 	mov	r7,dpl
                                    485 ;	mini51.c:62: P1 = reading;
      0000E9 8F 90            [24]  486 	mov	_P1,r7
                                    487 ;	mini51.c:63: unsigned char data = 0x00;		
      0000EB 7E 00            [12]  488 	mov	r6,#0x00
                                    489 ;	mini51.c:64: if (!(reading & 0x80)){
      0000ED EF               [12]  490 	mov	a,r7
      0000EE 20 E7 02         [24]  491 	jb	acc.7,00102$
                                    492 ;	mini51.c:66: data |= 0x01;
      0000F1 7E 01            [12]  493 	mov	r6,#0x01
      0000F3                        494 00102$:
                                    495 ;	mini51.c:68: if (!(reading & 0x40)){
      0000F3 EF               [12]  496 	mov	a,r7
      0000F4 20 E6 03         [24]  497 	jb	acc.6,00104$
                                    498 ;	mini51.c:70: data |= 0x02;
      0000F7 43 06 02         [24]  499 	orl	ar6,#0x02
      0000FA                        500 00104$:
                                    501 ;	mini51.c:72: if (!(reading & 0x20)){
      0000FA EF               [12]  502 	mov	a,r7
      0000FB 20 E5 03         [24]  503 	jb	acc.5,00106$
                                    504 ;	mini51.c:74: data |= 0x04;
      0000FE 43 06 04         [24]  505 	orl	ar6,#0x04
      000101                        506 00106$:
                                    507 ;	mini51.c:76: if (!(reading & 0x10)){
      000101 EF               [12]  508 	mov	a,r7
      000102 20 E4 03         [24]  509 	jb	acc.4,00108$
                                    510 ;	mini51.c:78: data |= 0x08;
      000105 43 06 08         [24]  511 	orl	ar6,#0x08
      000108                        512 00108$:
                                    513 ;	mini51.c:81: i2cSendData(LED_I2C_ADDR, ~data);
      000108 EE               [12]  514 	mov	a,r6
      000109 F4               [12]  515 	cpl	a
      00010A F5 1C            [12]  516 	mov	_i2cSendData_PARM_2,a
      00010C 75 82 20         [24]  517 	mov	dpl,#0x20
      00010F 12 03 D9         [24]  518 	lcall	_i2cSendData
                                    519 ;	mini51.c:86: delay(100);
      000112 90 00 64         [24]  520 	mov	dptr,#0x0064
      000115 12 01 E0         [24]  521 	lcall	_delay
                                    522 ;	mini51.c:87: modeChanged();
                                    523 ;	mini51.c:88: }
      000118 02 01 1B         [24]  524 	ljmp	_modeChanged
                                    525 ;------------------------------------------------------------
                                    526 ;Allocation info for local variables in function 'modeChanged'
                                    527 ;------------------------------------------------------------
                                    528 ;	mini51.c:91: unsigned char modeChanged(){ 
                                    529 ;	-----------------------------------------
                                    530 ;	 function modeChanged
                                    531 ;	-----------------------------------------
      00011B                        532 _modeChanged:
                                    533 ;	mini51.c:92: if (P3_5 == 0) {
      00011B 20 B5 09         [24]  534 	jb	_P3_5,00102$
                                    535 ;	mini51.c:93: sel += 1;
      00011E E5 1B            [12]  536 	mov	a,_sel
      000120 04               [12]  537 	inc	a
      000121 F5 1B            [12]  538 	mov	_sel,a
                                    539 ;	mini51.c:94: return 1;
      000123 75 82 01         [24]  540 	mov	dpl,#0x01
      000126 22               [24]  541 	ret
      000127                        542 00102$:
                                    543 ;	mini51.c:96: return 0;
      000127 75 82 00         [24]  544 	mov	dpl,#0x00
                                    545 ;	mini51.c:97: }
      00012A 22               [24]  546 	ret
                                    547 ;------------------------------------------------------------
                                    548 ;Allocation info for local variables in function 'binaryCt'
                                    549 ;------------------------------------------------------------
                                    550 ;b                         Allocated to registers r7 
                                    551 ;i                         Allocated to registers 
                                    552 ;------------------------------------------------------------
                                    553 ;	mini51.c:100: void binaryCt(){
                                    554 ;	-----------------------------------------
                                    555 ;	 function binaryCt
                                    556 ;	-----------------------------------------
      00012B                        557 _binaryCt:
                                    558 ;	mini51.c:101: unsigned char b = 0xFF;
      00012B 7F FF            [12]  559 	mov	r7,#0xff
                                    560 ;	mini51.c:102: for (unsigned char i = 0; i < 256; i++)
      00012D                        561 00104$:
                                    562 ;	mini51.c:104: P1 = b;
      00012D 8F 90            [24]  563 	mov	_P1,r7
                                    564 ;	mini51.c:105: delay(100);
      00012F 90 00 64         [24]  565 	mov	dptr,#0x0064
      000132 C0 07            [24]  566 	push	ar7
      000134 12 01 E0         [24]  567 	lcall	_delay
      000137 D0 07            [24]  568 	pop	ar7
                                    569 ;	mini51.c:106: b -= 0x01;
      000139 8F 06            [24]  570 	mov	ar6,r7
      00013B EE               [12]  571 	mov	a,r6
      00013C 14               [12]  572 	dec	a
      00013D FF               [12]  573 	mov	r7,a
                                    574 ;	mini51.c:107: if (modeChanged()) {return;}
      00013E C0 07            [24]  575 	push	ar7
      000140 12 01 1B         [24]  576 	lcall	_modeChanged
      000143 E5 82            [12]  577 	mov	a,dpl
      000145 D0 07            [24]  578 	pop	ar7
      000147 60 E4            [24]  579 	jz	00104$
                                    580 ;	mini51.c:102: for (unsigned char i = 0; i < 256; i++)
                                    581 ;	mini51.c:109: }
      000149 22               [24]  582 	ret
                                    583 ;------------------------------------------------------------
                                    584 ;Allocation info for local variables in function 'cylon'
                                    585 ;------------------------------------------------------------
                                    586 ;c1                        Allocated to registers r5 
                                    587 ;i                         Allocated to registers r6 
                                    588 ;i                         Allocated to registers r6 
                                    589 ;------------------------------------------------------------
                                    590 ;	mini51.c:112: void cylon(){
                                    591 ;	-----------------------------------------
                                    592 ;	 function cylon
                                    593 ;	-----------------------------------------
      00014A                        594 _cylon:
                                    595 ;	mini51.c:113: unsigned char c1 = 0xFC;
      00014A 7F FC            [12]  596 	mov	r7,#0xfc
                                    597 ;	mini51.c:114: for (unsigned char i = 0 ; i < 6; i++){
      00014C 7E 00            [12]  598 	mov	r6,#0x00
      00014E                        599 00108$:
      00014E BE 06 00         [24]  600 	cjne	r6,#0x06,00145$
      000151                        601 00145$:
      000151 50 24            [24]  602 	jnc	00120$
                                    603 ;	mini51.c:115: P1 = c1;
      000153 8F 90            [24]  604 	mov	_P1,r7
                                    605 ;	mini51.c:116: c1 = c1<<1;
      000155 8F 05            [24]  606 	mov	ar5,r7
      000157 ED               [12]  607 	mov	a,r5
      000158 2D               [12]  608 	add	a,r5
      000159 FD               [12]  609 	mov	r5,a
                                    610 ;	mini51.c:117: c1 = c1 | 0x01;
      00015A 74 01            [12]  611 	mov	a,#0x01
      00015C 4D               [12]  612 	orl	a,r5
      00015D FF               [12]  613 	mov	r7,a
                                    614 ;	mini51.c:118: delay(100);
      00015E 90 00 64         [24]  615 	mov	dptr,#0x0064
      000161 C0 07            [24]  616 	push	ar7
      000163 C0 06            [24]  617 	push	ar6
      000165 12 01 E0         [24]  618 	lcall	_delay
                                    619 ;	mini51.c:119: if (modeChanged()) {return;}
      000168 12 01 1B         [24]  620 	lcall	_modeChanged
      00016B E5 82            [12]  621 	mov	a,dpl
      00016D D0 06            [24]  622 	pop	ar6
      00016F D0 07            [24]  623 	pop	ar7
      000171 60 01            [24]  624 	jz	00109$
      000173 22               [24]  625 	ret
      000174                        626 00109$:
                                    627 ;	mini51.c:114: for (unsigned char i = 0 ; i < 6; i++){
      000174 0E               [12]  628 	inc	r6
                                    629 ;	mini51.c:122: for (unsigned char i = 0; i < 6; i++){
      000175 80 D7            [24]  630 	sjmp	00108$
      000177                        631 00120$:
      000177 7E 00            [12]  632 	mov	r6,#0x00
      000179                        633 00111$:
      000179 BE 06 00         [24]  634 	cjne	r6,#0x06,00148$
      00017C                        635 00148$:
      00017C 50 23            [24]  636 	jnc	00113$
                                    637 ;	mini51.c:123: P1 = c1;
                                    638 ;	mini51.c:124: c1 = c1>>1;
      00017E EF               [12]  639 	mov	a,r7
      00017F F5 90            [12]  640 	mov	_P1,a
      000181 C3               [12]  641 	clr	c
      000182 13               [12]  642 	rrc	a
      000183 FD               [12]  643 	mov	r5,a
                                    644 ;	mini51.c:125: c1 = c1 | 0x80;
      000184 74 80            [12]  645 	mov	a,#0x80
      000186 4D               [12]  646 	orl	a,r5
      000187 FF               [12]  647 	mov	r7,a
                                    648 ;	mini51.c:126: delay(100);
      000188 90 00 64         [24]  649 	mov	dptr,#0x0064
      00018B C0 07            [24]  650 	push	ar7
      00018D C0 06            [24]  651 	push	ar6
      00018F 12 01 E0         [24]  652 	lcall	_delay
                                    653 ;	mini51.c:127: if (modeChanged()) {return;}
      000192 12 01 1B         [24]  654 	lcall	_modeChanged
      000195 E5 82            [12]  655 	mov	a,dpl
      000197 D0 06            [24]  656 	pop	ar6
      000199 D0 07            [24]  657 	pop	ar7
      00019B 60 01            [24]  658 	jz	00112$
      00019D 22               [24]  659 	ret
      00019E                        660 00112$:
                                    661 ;	mini51.c:122: for (unsigned char i = 0; i < 6; i++){
      00019E 0E               [12]  662 	inc	r6
      00019F 80 D8            [24]  663 	sjmp	00111$
      0001A1                        664 00113$:
                                    665 ;	mini51.c:130: }
      0001A1 22               [24]  666 	ret
                                    667 ;------------------------------------------------------------
                                    668 ;Allocation info for local variables in function 'dualCylon'
                                    669 ;------------------------------------------------------------
                                    670 ;c1                        Allocated to registers r4 
                                    671 ;c2                        Allocated to registers r4 
                                    672 ;i                         Allocated to registers r5 
                                    673 ;------------------------------------------------------------
                                    674 ;	mini51.c:133: void dualCylon(){
                                    675 ;	-----------------------------------------
                                    676 ;	 function dualCylon
                                    677 ;	-----------------------------------------
      0001A2                        678 _dualCylon:
                                    679 ;	mini51.c:134: unsigned char c1 = 0xFC;
      0001A2 7F FC            [12]  680 	mov	r7,#0xfc
                                    681 ;	mini51.c:135: unsigned char c2 = 0x3F;
      0001A4 7E 3F            [12]  682 	mov	r6,#0x3f
                                    683 ;	mini51.c:136: for (unsigned char i = 0 ; i < 6; i++){
      0001A6 7D 00            [12]  684 	mov	r5,#0x00
      0001A8                        685 00105$:
      0001A8 BD 06 00         [24]  686 	cjne	r5,#0x06,00124$
      0001AB                        687 00124$:
      0001AB 50 32            [24]  688 	jnc	00107$
                                    689 ;	mini51.c:137: P1 = c1 & c2;
      0001AD EE               [12]  690 	mov	a,r6
      0001AE 5F               [12]  691 	anl	a,r7
      0001AF F5 90            [12]  692 	mov	_P1,a
                                    693 ;	mini51.c:138: c1 = c1<<1;
      0001B1 8F 04            [24]  694 	mov	ar4,r7
      0001B3 EC               [12]  695 	mov	a,r4
      0001B4 2C               [12]  696 	add	a,r4
      0001B5 FC               [12]  697 	mov	r4,a
                                    698 ;	mini51.c:139: c1 = c1 | 0x01;
      0001B6 74 01            [12]  699 	mov	a,#0x01
      0001B8 4C               [12]  700 	orl	a,r4
      0001B9 FF               [12]  701 	mov	r7,a
                                    702 ;	mini51.c:141: c2 = c2>>1;
      0001BA EE               [12]  703 	mov	a,r6
      0001BB C3               [12]  704 	clr	c
      0001BC 13               [12]  705 	rrc	a
      0001BD FC               [12]  706 	mov	r4,a
                                    707 ;	mini51.c:142: c2 = c2 | 0x80;
      0001BE 74 80            [12]  708 	mov	a,#0x80
      0001C0 4C               [12]  709 	orl	a,r4
      0001C1 FE               [12]  710 	mov	r6,a
                                    711 ;	mini51.c:143: delay(100);
      0001C2 90 00 64         [24]  712 	mov	dptr,#0x0064
      0001C5 C0 07            [24]  713 	push	ar7
      0001C7 C0 06            [24]  714 	push	ar6
      0001C9 C0 05            [24]  715 	push	ar5
      0001CB 12 01 E0         [24]  716 	lcall	_delay
                                    717 ;	mini51.c:144: if (modeChanged()) {return;}
      0001CE 12 01 1B         [24]  718 	lcall	_modeChanged
      0001D1 E5 82            [12]  719 	mov	a,dpl
      0001D3 D0 05            [24]  720 	pop	ar5
      0001D5 D0 06            [24]  721 	pop	ar6
      0001D7 D0 07            [24]  722 	pop	ar7
      0001D9 60 01            [24]  723 	jz	00106$
      0001DB 22               [24]  724 	ret
      0001DC                        725 00106$:
                                    726 ;	mini51.c:136: for (unsigned char i = 0 ; i < 6; i++){
      0001DC 0D               [12]  727 	inc	r5
      0001DD 80 C9            [24]  728 	sjmp	00105$
      0001DF                        729 00107$:
                                    730 ;	mini51.c:147: }
      0001DF 22               [24]  731 	ret
                                    732 ;------------------------------------------------------------
                                    733 ;Allocation info for local variables in function 'delay'
                                    734 ;------------------------------------------------------------
                                    735 ;i                         Allocated to registers 
                                    736 ;j                         Allocated to registers r5 
                                    737 ;------------------------------------------------------------
                                    738 ;	mini51.c:150: void delay(unsigned int i)
                                    739 ;	-----------------------------------------
                                    740 ;	 function delay
                                    741 ;	-----------------------------------------
      0001E0                        742 _delay:
      0001E0 AE 82            [24]  743 	mov	r6,dpl
      0001E2 AF 83            [24]  744 	mov	r7,dph
      0001E4                        745 00107$:
                                    746 ;	mini51.c:154: for (; i > 0; i--)
      0001E4 EE               [12]  747 	mov	a,r6
      0001E5 4F               [12]  748 	orl	a,r7
      0001E6 60 0F            [24]  749 	jz	00109$
                                    750 ;	mini51.c:155: for (unsigned char j = 152; j > 0; j--);
      0001E8 7D 98            [12]  751 	mov	r5,#0x98
      0001EA                        752 00104$:
      0001EA ED               [12]  753 	mov	a,r5
      0001EB 60 03            [24]  754 	jz	00108$
      0001ED 1D               [12]  755 	dec	r5
      0001EE 80 FA            [24]  756 	sjmp	00104$
      0001F0                        757 00108$:
                                    758 ;	mini51.c:154: for (; i > 0; i--)
      0001F0 1E               [12]  759 	dec	r6
      0001F1 BE FF 01         [24]  760 	cjne	r6,#0xff,00135$
      0001F4 1F               [12]  761 	dec	r7
      0001F5                        762 00135$:
      0001F5 80 ED            [24]  763 	sjmp	00107$
      0001F7                        764 00109$:
                                    765 ;	mini51.c:157: }
      0001F7 22               [24]  766 	ret
                                    767 ;------------------------------------------------------------
                                    768 ;Allocation info for local variables in function 'delayUs'
                                    769 ;------------------------------------------------------------
                                    770 ;us                        Allocated to registers r6 r7 
                                    771 ;i                         Allocated to registers r4 r5 
                                    772 ;------------------------------------------------------------
                                    773 ;	mini51.c:159: void delayUs(unsigned int us){
                                    774 ;	-----------------------------------------
                                    775 ;	 function delayUs
                                    776 ;	-----------------------------------------
      0001F8                        777 _delayUs:
      0001F8 AE 82            [24]  778 	mov	r6,dpl
      0001FA AF 83            [24]  779 	mov	r7,dph
                                    780 ;	mini51.c:160: for (unsigned int i = 0; i < us; i++){
      0001FC 7C 00            [12]  781 	mov	r4,#0x00
      0001FE 7D 00            [12]  782 	mov	r5,#0x00
      000200                        783 00103$:
      000200 C3               [12]  784 	clr	c
      000201 EC               [12]  785 	mov	a,r4
      000202 9E               [12]  786 	subb	a,r6
      000203 ED               [12]  787 	mov	a,r5
      000204 9F               [12]  788 	subb	a,r7
      000205 50 07            [24]  789 	jnc	00105$
      000207 0C               [12]  790 	inc	r4
      000208 BC 00 F5         [24]  791 	cjne	r4,#0x00,00103$
      00020B 0D               [12]  792 	inc	r5
      00020C 80 F2            [24]  793 	sjmp	00103$
      00020E                        794 00105$:
                                    795 ;	mini51.c:163: }
      00020E 22               [24]  796 	ret
                                    797 ;------------------------------------------------------------
                                    798 ;Allocation info for local variables in function 'numChange'
                                    799 ;------------------------------------------------------------
                                    800 ;	mini51.c:166: void numChange(){
                                    801 ;	-----------------------------------------
                                    802 ;	 function numChange
                                    803 ;	-----------------------------------------
      00020F                        804 _numChange:
                                    805 ;	mini51.c:167: if (P3_2 == 0) {
      00020F 20 B2 0C         [24]  806 	jb	_P3_2,00104$
                                    807 ;	mini51.c:169: num--;
      000212 15 15            [12]  808 	dec	_num
      000214 74 FF            [12]  809 	mov	a,#0xff
      000216 B5 15 02         [24]  810 	cjne	a,_num,00117$
      000219 15 16            [12]  811 	dec	(_num + 1)
      00021B                        812 00117$:
                                    813 ;	mini51.c:170: configNumDisplay();
      00021B 02 02 2D         [24]  814 	ljmp	_configNumDisplay
      00021E                        815 00104$:
                                    816 ;	mini51.c:171: } else if (P3_3 == 0){
      00021E 20 B3 0B         [24]  817 	jb	_P3_3,00106$
                                    818 ;	mini51.c:173: num++;
      000221 05 15            [12]  819 	inc	_num
      000223 E4               [12]  820 	clr	a
      000224 B5 15 02         [24]  821 	cjne	a,_num,00119$
      000227 05 16            [12]  822 	inc	(_num + 1)
      000229                        823 00119$:
                                    824 ;	mini51.c:174: configNumDisplay();
                                    825 ;	mini51.c:177: }
      000229 02 02 2D         [24]  826 	ljmp	_configNumDisplay
      00022C                        827 00106$:
      00022C 22               [24]  828 	ret
                                    829 ;------------------------------------------------------------
                                    830 ;Allocation info for local variables in function 'configNumDisplay'
                                    831 ;------------------------------------------------------------
                                    832 ;curNum                    Allocated to registers r6 r7 
                                    833 ;result                    Allocated to registers r4 
                                    834 ;------------------------------------------------------------
                                    835 ;	mini51.c:180: void configNumDisplay(){
                                    836 ;	-----------------------------------------
                                    837 ;	 function configNumDisplay
                                    838 ;	-----------------------------------------
      00022D                        839 _configNumDisplay:
                                    840 ;	mini51.c:182: if ( num > 9999 ){num = 0;}
      00022D C3               [12]  841 	clr	c
      00022E 74 0F            [12]  842 	mov	a,#0x0f
      000230 95 15            [12]  843 	subb	a,_num
      000232 74 A7            [12]  844 	mov	a,#(0x27 ^ 0x80)
      000234 85 16 F0         [24]  845 	mov	b,(_num + 1)
      000237 63 F0 80         [24]  846 	xrl	b,#0x80
      00023A 95 F0            [12]  847 	subb	a,b
      00023C 50 05            [24]  848 	jnc	00102$
      00023E E4               [12]  849 	clr	a
      00023F F5 15            [12]  850 	mov	_num,a
      000241 F5 16            [12]  851 	mov	(_num + 1),a
      000243                        852 00102$:
                                    853 ;	mini51.c:183: if ( num < 0 ) {num = 9999;}
      000243 E5 16            [12]  854 	mov	a,(_num + 1)
      000245 30 E7 06         [24]  855 	jnb	acc.7,00104$
      000248 75 15 0F         [24]  856 	mov	_num,#0x0f
      00024B 75 16 27         [24]  857 	mov	(_num + 1),#0x27
      00024E                        858 00104$:
                                    859 ;	mini51.c:184: P1 = 0xFF; // clear led's
      00024E 75 90 FF         [24]  860 	mov	_P1,#0xff
                                    861 ;	mini51.c:185: unsigned int curNum = num;
      000251 AE 15            [24]  862 	mov	r6,_num
      000253 AF 16            [24]  863 	mov	r7,(_num + 1)
                                    864 ;	mini51.c:187: num4 = nums[0];
      000255 85 0A 17         [24]  865 	mov	_num4,_nums
                                    866 ;	mini51.c:188: num3 = nums[10];
      000258 85 14 18         [24]  867 	mov	_num3,(_nums + 0x000a)
                                    868 ;	mini51.c:189: num2 = nums[10];
      00025B 85 14 19         [24]  869 	mov	_num2,(_nums + 0x000a)
                                    870 ;	mini51.c:190: num1 = nums[10];
      00025E 85 14 1A         [24]  871 	mov	_num1,(_nums + 0x000a)
                                    872 ;	mini51.c:194: if (curNum > 0){
      000261 EE               [12]  873 	mov	a,r6
      000262 4F               [12]  874 	orl	a,r7
      000263 60 2E            [24]  875 	jz	00106$
                                    876 ;	mini51.c:195: result = curNum % 10;
      000265 75 1E 0A         [24]  877 	mov	__moduint_PARM_2,#0x0a
      000268 75 1F 00         [24]  878 	mov	(__moduint_PARM_2 + 1),#0x00
      00026B 8E 82            [24]  879 	mov	dpl,r6
      00026D 8F 83            [24]  880 	mov	dph,r7
      00026F C0 07            [24]  881 	push	ar7
      000271 C0 06            [24]  882 	push	ar6
      000273 12 04 FB         [24]  883 	lcall	__moduint
      000276 AC 82            [24]  884 	mov	r4,dpl
      000278 D0 06            [24]  885 	pop	ar6
      00027A D0 07            [24]  886 	pop	ar7
                                    887 ;	mini51.c:196: num4 = nums[result];
      00027C EC               [12]  888 	mov	a,r4
      00027D 24 0A            [12]  889 	add	a,#_nums
      00027F F9               [12]  890 	mov	r1,a
      000280 87 17            [24]  891 	mov	_num4,@r1
                                    892 ;	mini51.c:197: curNum = curNum / 10;
      000282 75 1E 0A         [24]  893 	mov	__divuint_PARM_2,#0x0a
      000285 75 1F 00         [24]  894 	mov	(__divuint_PARM_2 + 1),#0x00
      000288 8E 82            [24]  895 	mov	dpl,r6
      00028A 8F 83            [24]  896 	mov	dph,r7
      00028C 12 04 D2         [24]  897 	lcall	__divuint
      00028F AE 82            [24]  898 	mov	r6,dpl
      000291 AF 83            [24]  899 	mov	r7,dph
      000293                        900 00106$:
                                    901 ;	mini51.c:200: if (curNum > 0) {
      000293 EE               [12]  902 	mov	a,r6
      000294 4F               [12]  903 	orl	a,r7
      000295 60 2E            [24]  904 	jz	00108$
                                    905 ;	mini51.c:201: result = curNum % 10;
      000297 75 1E 0A         [24]  906 	mov	__moduint_PARM_2,#0x0a
      00029A 75 1F 00         [24]  907 	mov	(__moduint_PARM_2 + 1),#0x00
      00029D 8E 82            [24]  908 	mov	dpl,r6
      00029F 8F 83            [24]  909 	mov	dph,r7
      0002A1 C0 07            [24]  910 	push	ar7
      0002A3 C0 06            [24]  911 	push	ar6
      0002A5 12 04 FB         [24]  912 	lcall	__moduint
      0002A8 AC 82            [24]  913 	mov	r4,dpl
      0002AA D0 06            [24]  914 	pop	ar6
      0002AC D0 07            [24]  915 	pop	ar7
                                    916 ;	mini51.c:202: num3 = nums[result];
      0002AE EC               [12]  917 	mov	a,r4
      0002AF 24 0A            [12]  918 	add	a,#_nums
      0002B1 F9               [12]  919 	mov	r1,a
      0002B2 87 18            [24]  920 	mov	_num3,@r1
                                    921 ;	mini51.c:203: curNum = curNum / 10;
      0002B4 75 1E 0A         [24]  922 	mov	__divuint_PARM_2,#0x0a
      0002B7 75 1F 00         [24]  923 	mov	(__divuint_PARM_2 + 1),#0x00
      0002BA 8E 82            [24]  924 	mov	dpl,r6
      0002BC 8F 83            [24]  925 	mov	dph,r7
      0002BE 12 04 D2         [24]  926 	lcall	__divuint
      0002C1 AE 82            [24]  927 	mov	r6,dpl
      0002C3 AF 83            [24]  928 	mov	r7,dph
      0002C5                        929 00108$:
                                    930 ;	mini51.c:206: if (curNum > 0) {
      0002C5 EE               [12]  931 	mov	a,r6
      0002C6 4F               [12]  932 	orl	a,r7
      0002C7 60 2E            [24]  933 	jz	00110$
                                    934 ;	mini51.c:207: result = curNum % 10;
      0002C9 75 1E 0A         [24]  935 	mov	__moduint_PARM_2,#0x0a
      0002CC 75 1F 00         [24]  936 	mov	(__moduint_PARM_2 + 1),#0x00
      0002CF 8E 82            [24]  937 	mov	dpl,r6
      0002D1 8F 83            [24]  938 	mov	dph,r7
      0002D3 C0 07            [24]  939 	push	ar7
      0002D5 C0 06            [24]  940 	push	ar6
      0002D7 12 04 FB         [24]  941 	lcall	__moduint
      0002DA AC 82            [24]  942 	mov	r4,dpl
      0002DC D0 06            [24]  943 	pop	ar6
      0002DE D0 07            [24]  944 	pop	ar7
                                    945 ;	mini51.c:208: num2 = nums[result];
      0002E0 EC               [12]  946 	mov	a,r4
      0002E1 24 0A            [12]  947 	add	a,#_nums
      0002E3 F9               [12]  948 	mov	r1,a
      0002E4 87 19            [24]  949 	mov	_num2,@r1
                                    950 ;	mini51.c:209: curNum = curNum / 10;
      0002E6 75 1E 0A         [24]  951 	mov	__divuint_PARM_2,#0x0a
      0002E9 75 1F 00         [24]  952 	mov	(__divuint_PARM_2 + 1),#0x00
      0002EC 8E 82            [24]  953 	mov	dpl,r6
      0002EE 8F 83            [24]  954 	mov	dph,r7
      0002F0 12 04 D2         [24]  955 	lcall	__divuint
      0002F3 AE 82            [24]  956 	mov	r6,dpl
      0002F5 AF 83            [24]  957 	mov	r7,dph
      0002F7                        958 00110$:
                                    959 ;	mini51.c:212: if (curNum > 0) {
      0002F7 EE               [12]  960 	mov	a,r6
      0002F8 4F               [12]  961 	orl	a,r7
      0002F9 60 17            [24]  962 	jz	00113$
                                    963 ;	mini51.c:213: result = curNum % 10;
      0002FB 75 1E 0A         [24]  964 	mov	__moduint_PARM_2,#0x0a
      0002FE 75 1F 00         [24]  965 	mov	(__moduint_PARM_2 + 1),#0x00
      000301 8E 82            [24]  966 	mov	dpl,r6
      000303 8F 83            [24]  967 	mov	dph,r7
      000305 12 04 FB         [24]  968 	lcall	__moduint
      000308 AE 82            [24]  969 	mov	r6,dpl
      00030A AF 83            [24]  970 	mov	r7,dph
                                    971 ;	mini51.c:214: num1 = nums[result];
      00030C EE               [12]  972 	mov	a,r6
      00030D 24 0A            [12]  973 	add	a,#_nums
      00030F F9               [12]  974 	mov	r1,a
      000310 87 1A            [24]  975 	mov	_num1,@r1
                                    976 ;	mini51.c:215: curNum = curNum / 10;
      000312                        977 00113$:
                                    978 ;	mini51.c:218: }
      000312 22               [24]  979 	ret
                                    980 ;------------------------------------------------------------
                                    981 ;Allocation info for local variables in function 'showNums'
                                    982 ;------------------------------------------------------------
                                    983 ;ct                        Allocated to registers r7 
                                    984 ;ct2                       Allocated to registers r6 
                                    985 ;------------------------------------------------------------
                                    986 ;	mini51.c:221: void showNums(){
                                    987 ;	-----------------------------------------
                                    988 ;	 function showNums
                                    989 ;	-----------------------------------------
      000313                        990 _showNums:
                                    991 ;	mini51.c:222: unsigned char ct = 0;
      000313 7F 00            [12]  992 	mov	r7,#0x00
                                    993 ;	mini51.c:223: unsigned char ct2 = 0;
      000315 7E 00            [12]  994 	mov	r6,#0x00
                                    995 ;	mini51.c:224: while (1)
      000317                        996 00108$:
                                    997 ;	mini51.c:226: P0 = num1;
      000317 85 1A 80         [24]  998 	mov	_P0,_num1
                                    999 ;	mini51.c:227: P2_0 = 0;
                                   1000 ;	assignBit
      00031A C2 A0            [12] 1001 	clr	_P2_0
                                   1002 ;	mini51.c:228: delay(2);
      00031C 90 00 02         [24] 1003 	mov	dptr,#0x0002
      00031F C0 07            [24] 1004 	push	ar7
      000321 C0 06            [24] 1005 	push	ar6
      000323 12 01 E0         [24] 1006 	lcall	_delay
                                   1007 ;	mini51.c:229: P2_0 = 1;
                                   1008 ;	assignBit
      000326 D2 A0            [12] 1009 	setb	_P2_0
                                   1010 ;	mini51.c:232: P0 = num2;
      000328 85 19 80         [24] 1011 	mov	_P0,_num2
                                   1012 ;	mini51.c:233: P2_1 = 0;
                                   1013 ;	assignBit
      00032B C2 A1            [12] 1014 	clr	_P2_1
                                   1015 ;	mini51.c:234: delay(2);
      00032D 90 00 02         [24] 1016 	mov	dptr,#0x0002
      000330 12 01 E0         [24] 1017 	lcall	_delay
                                   1018 ;	mini51.c:235: P2_1 = 1;
                                   1019 ;	assignBit
      000333 D2 A1            [12] 1020 	setb	_P2_1
                                   1021 ;	mini51.c:237: P0 = num3;
      000335 85 18 80         [24] 1022 	mov	_P0,_num3
                                   1023 ;	mini51.c:238: P2_2 = 0;
                                   1024 ;	assignBit
      000338 C2 A2            [12] 1025 	clr	_P2_2
                                   1026 ;	mini51.c:239: delay(2);
      00033A 90 00 02         [24] 1027 	mov	dptr,#0x0002
      00033D 12 01 E0         [24] 1028 	lcall	_delay
                                   1029 ;	mini51.c:240: P2_2 = 1;
                                   1030 ;	assignBit
      000340 D2 A2            [12] 1031 	setb	_P2_2
                                   1032 ;	mini51.c:242: P0 = num4;
      000342 85 17 80         [24] 1033 	mov	_P0,_num4
                                   1034 ;	mini51.c:243: P2_3 = 0;
                                   1035 ;	assignBit
      000345 C2 A3            [12] 1036 	clr	_P2_3
                                   1037 ;	mini51.c:244: delay(2);
      000347 90 00 02         [24] 1038 	mov	dptr,#0x0002
      00034A 12 01 E0         [24] 1039 	lcall	_delay
      00034D D0 06            [24] 1040 	pop	ar6
      00034F D0 07            [24] 1041 	pop	ar7
                                   1042 ;	mini51.c:245: P2_3 = 1;		
                                   1043 ;	assignBit
      000351 D2 A3            [12] 1044 	setb	_P2_3
                                   1045 ;	mini51.c:246: ct++;
      000353 0F               [12] 1046 	inc	r7
                                   1047 ;	mini51.c:247: ct2++;
      000354 0E               [12] 1048 	inc	r6
                                   1049 ;	mini51.c:249: if (ct > 23){
      000355 EF               [12] 1050 	mov	a,r7
      000356 24 E8            [12] 1051 	add	a,#0xff - 0x17
      000358 50 12            [24] 1052 	jnc	00104$
                                   1053 ;	mini51.c:250: ct = 0;
      00035A 7F 00            [12] 1054 	mov	r7,#0x00
                                   1055 ;	mini51.c:251: if (modeChanged()) {return;}
      00035C C0 07            [24] 1056 	push	ar7
      00035E C0 06            [24] 1057 	push	ar6
      000360 12 01 1B         [24] 1058 	lcall	_modeChanged
      000363 E5 82            [12] 1059 	mov	a,dpl
      000365 D0 06            [24] 1060 	pop	ar6
      000367 D0 07            [24] 1061 	pop	ar7
      000369 60 01            [24] 1062 	jz	00104$
      00036B 22               [24] 1063 	ret
      00036C                       1064 00104$:
                                   1065 ;	mini51.c:254: if (ct2 > 10){
      00036C EE               [12] 1066 	mov	a,r6
      00036D 24 F5            [12] 1067 	add	a,#0xff - 0x0a
      00036F 50 A6            [24] 1068 	jnc	00108$
                                   1069 ;	mini51.c:255: numChange();
      000371 C0 07            [24] 1070 	push	ar7
      000373 12 02 0F         [24] 1071 	lcall	_numChange
      000376 D0 07            [24] 1072 	pop	ar7
                                   1073 ;	mini51.c:256: ct2 = 0;
      000378 7E 00            [12] 1074 	mov	r6,#0x00
                                   1075 ;	mini51.c:260: }
      00037A 02 03 17         [24] 1076 	ljmp	00108$
                                   1077 ;------------------------------------------------------------
                                   1078 ;Allocation info for local variables in function 'i2cStart'
                                   1079 ;------------------------------------------------------------
                                   1080 ;	mini51.c:269: void i2cStart(){
                                   1081 ;	-----------------------------------------
                                   1082 ;	 function i2cStart
                                   1083 ;	-----------------------------------------
      00037D                       1084 _i2cStart:
                                   1085 ;	mini51.c:271: SDA = 1;
                                   1086 ;	assignBit
      00037D D2 86            [12] 1087 	setb	_SDA
                                   1088 ;	mini51.c:272: SCL = 1;
                                   1089 ;	assignBit
      00037F D2 87            [12] 1090 	setb	_SCL
                                   1091 ;	mini51.c:273: SDA = 0;
                                   1092 ;	assignBit
      000381 C2 86            [12] 1093 	clr	_SDA
                                   1094 ;	mini51.c:274: SCL = 0;
                                   1095 ;	assignBit
      000383 C2 87            [12] 1096 	clr	_SCL
                                   1097 ;	mini51.c:276: }
      000385 22               [24] 1098 	ret
                                   1099 ;------------------------------------------------------------
                                   1100 ;Allocation info for local variables in function 'i2cStop'
                                   1101 ;------------------------------------------------------------
                                   1102 ;	mini51.c:278: void i2cStop(){
                                   1103 ;	-----------------------------------------
                                   1104 ;	 function i2cStop
                                   1105 ;	-----------------------------------------
      000386                       1106 _i2cStop:
                                   1107 ;	mini51.c:280: SDA = 0;
                                   1108 ;	assignBit
      000386 C2 86            [12] 1109 	clr	_SDA
                                   1110 ;	mini51.c:281: SCL = 1;
                                   1111 ;	assignBit
      000388 D2 87            [12] 1112 	setb	_SCL
                                   1113 ;	mini51.c:282: SDA = 1;
                                   1114 ;	assignBit
      00038A D2 86            [12] 1115 	setb	_SDA
                                   1116 ;	mini51.c:285: }
      00038C 22               [24] 1117 	ret
                                   1118 ;------------------------------------------------------------
                                   1119 ;Allocation info for local variables in function 'i2cSend'
                                   1120 ;------------------------------------------------------------
                                   1121 ;data                      Allocated to registers r7 
                                   1122 ;i                         Allocated to registers 
                                   1123 ;mask                      Allocated to registers 
                                   1124 ;i                         Allocated to registers r6 
                                   1125 ;------------------------------------------------------------
                                   1126 ;	mini51.c:287: unsigned char i2cSend(unsigned char data){
                                   1127 ;	-----------------------------------------
                                   1128 ;	 function i2cSend
                                   1129 ;	-----------------------------------------
      00038D                       1130 _i2cSend:
      00038D AF 82            [24] 1131 	mov	r7,dpl
                                   1132 ;	mini51.c:291: for (unsigned char i = 0; i < 8; i++){
      00038F 7E 00            [12] 1133 	mov	r6,#0x00
      000391                       1134 00105$:
      000391 BE 08 00         [24] 1135 	cjne	r6,#0x08,00122$
      000394                       1136 00122$:
      000394 50 13            [24] 1137 	jnc	00101$
                                   1138 ;	mini51.c:292: SDA = data & mask;// send data bit
      000396 74 80            [12] 1139 	mov	a,#0x80
      000398 5F               [12] 1140 	anl	a,r7
                                   1141 ;	assignBit
      000399 24 FF            [12] 1142 	add	a,#0xff
      00039B 92 86            [24] 1143 	mov	_SDA,c
                                   1144 ;	mini51.c:293: SCL = 1;
                                   1145 ;	assignBit
      00039D D2 87            [12] 1146 	setb	_SCL
                                   1147 ;	mini51.c:294: data = data << 1;
      00039F 8F 05            [24] 1148 	mov	ar5,r7
      0003A1 ED               [12] 1149 	mov	a,r5
      0003A2 2D               [12] 1150 	add	a,r5
      0003A3 FF               [12] 1151 	mov	r7,a
                                   1152 ;	mini51.c:295: SCL = 0;
                                   1153 ;	assignBit
      0003A4 C2 87            [12] 1154 	clr	_SCL
                                   1155 ;	mini51.c:291: for (unsigned char i = 0; i < 8; i++){
      0003A6 0E               [12] 1156 	inc	r6
      0003A7 80 E8            [24] 1157 	sjmp	00105$
      0003A9                       1158 00101$:
                                   1159 ;	mini51.c:299: SCL = 1;
                                   1160 ;	assignBit
      0003A9 D2 87            [12] 1161 	setb	_SCL
                                   1162 ;	mini51.c:300: SCL = 1;
                                   1163 ;	assignBit
      0003AB D2 87            [12] 1164 	setb	_SCL
                                   1165 ;	mini51.c:303: if (SDA == 1){
      0003AD 30 86 04         [24] 1166 	jnb	_SDA,00103$
                                   1167 ;	mini51.c:304: return 0; //NACK
      0003B0 75 82 00         [24] 1168 	mov	dpl,#0x00
      0003B3 22               [24] 1169 	ret
      0003B4                       1170 00103$:
                                   1171 ;	mini51.c:306: SCL = 0;
                                   1172 ;	assignBit
      0003B4 C2 87            [12] 1173 	clr	_SCL
                                   1174 ;	mini51.c:308: return 1;
      0003B6 75 82 01         [24] 1175 	mov	dpl,#0x01
                                   1176 ;	mini51.c:310: }
      0003B9 22               [24] 1177 	ret
                                   1178 ;------------------------------------------------------------
                                   1179 ;Allocation info for local variables in function 'i2cRead'
                                   1180 ;------------------------------------------------------------
                                   1181 ;data                      Allocated to registers r5 
                                   1182 ;lsb                       Allocated to registers r4 
                                   1183 ;i                         Allocated to registers r6 
                                   1184 ;------------------------------------------------------------
                                   1185 ;	mini51.c:312: unsigned char i2cRead(){
                                   1186 ;	-----------------------------------------
                                   1187 ;	 function i2cRead
                                   1188 ;	-----------------------------------------
      0003BA                       1189 _i2cRead:
                                   1190 ;	mini51.c:314: unsigned char data = 0;
      0003BA 7F 00            [12] 1191 	mov	r7,#0x00
                                   1192 ;	mini51.c:317: for (unsigned char i = 0; i < 8; i++){
      0003BC 7E 00            [12] 1193 	mov	r6,#0x00
      0003BE                       1194 00103$:
      0003BE BE 08 00         [24] 1195 	cjne	r6,#0x08,00118$
      0003C1                       1196 00118$:
      0003C1 50 13            [24] 1197 	jnc	00101$
                                   1198 ;	mini51.c:318: data = data << 1;
      0003C3 8F 05            [24] 1199 	mov	ar5,r7
      0003C5 ED               [12] 1200 	mov	a,r5
      0003C6 2D               [12] 1201 	add	a,r5
      0003C7 FD               [12] 1202 	mov	r5,a
                                   1203 ;	mini51.c:319: SCL = 1;
                                   1204 ;	assignBit
      0003C8 D2 87            [12] 1205 	setb	_SCL
                                   1206 ;	mini51.c:320: lsb = SDA;// read data bit
      0003CA A2 86            [12] 1207 	mov	c,_SDA
      0003CC E4               [12] 1208 	clr	a
      0003CD 33               [12] 1209 	rlc	a
                                   1210 ;	mini51.c:321: data = data | lsb;
      0003CE FC               [12] 1211 	mov	r4,a
      0003CF 4D               [12] 1212 	orl	a,r5
      0003D0 FF               [12] 1213 	mov	r7,a
                                   1214 ;	mini51.c:322: SCL = 0;		
                                   1215 ;	assignBit
      0003D1 C2 87            [12] 1216 	clr	_SCL
                                   1217 ;	mini51.c:317: for (unsigned char i = 0; i < 8; i++){
      0003D3 0E               [12] 1218 	inc	r6
      0003D4 80 E8            [24] 1219 	sjmp	00103$
      0003D6                       1220 00101$:
                                   1221 ;	mini51.c:337: return(data);
      0003D6 8F 82            [24] 1222 	mov	dpl,r7
                                   1223 ;	mini51.c:338: }
      0003D8 22               [24] 1224 	ret
                                   1225 ;------------------------------------------------------------
                                   1226 ;Allocation info for local variables in function 'i2cSendData'
                                   1227 ;------------------------------------------------------------
                                   1228 ;dataa                     Allocated with name '_i2cSendData_PARM_2'
                                   1229 ;addr                      Allocated to registers r7 
                                   1230 ;------------------------------------------------------------
                                   1231 ;	mini51.c:340: void i2cSendData(unsigned char addr, unsigned char dataa){
                                   1232 ;	-----------------------------------------
                                   1233 ;	 function i2cSendData
                                   1234 ;	-----------------------------------------
      0003D9                       1235 _i2cSendData:
                                   1236 ;	mini51.c:342: addr = addr << 1; // add the write bit
      0003D9 E5 82            [12] 1237 	mov	a,dpl
      0003DB 25 82            [12] 1238 	add	a,dpl
      0003DD FF               [12] 1239 	mov	r7,a
                                   1240 ;	mini51.c:343: i2cStart();
      0003DE C0 07            [24] 1241 	push	ar7
      0003E0 12 03 7D         [24] 1242 	lcall	_i2cStart
      0003E3 D0 07            [24] 1243 	pop	ar7
                                   1244 ;	mini51.c:344: i2cSend(addr);
      0003E5 8F 82            [24] 1245 	mov	dpl,r7
      0003E7 12 03 8D         [24] 1246 	lcall	_i2cSend
                                   1247 ;	mini51.c:345: i2cSend(dataa);
      0003EA 85 1C 82         [24] 1248 	mov	dpl,_i2cSendData_PARM_2
      0003ED 12 03 8D         [24] 1249 	lcall	_i2cSend
                                   1250 ;	mini51.c:346: i2cStop();
                                   1251 ;	mini51.c:348: }
      0003F0 02 03 86         [24] 1252 	ljmp	_i2cStop
                                   1253 ;------------------------------------------------------------
                                   1254 ;Allocation info for local variables in function 'i2cReadData'
                                   1255 ;------------------------------------------------------------
                                   1256 ;addr                      Allocated to registers r7 
                                   1257 ;read                      Allocated to registers r6 
                                   1258 ;------------------------------------------------------------
                                   1259 ;	mini51.c:350: unsigned char i2cReadData(unsigned char addr){
                                   1260 ;	-----------------------------------------
                                   1261 ;	 function i2cReadData
                                   1262 ;	-----------------------------------------
      0003F3                       1263 _i2cReadData:
      0003F3 AF 82            [24] 1264 	mov	r7,dpl
                                   1265 ;	mini51.c:351: P0_1 = 1;
                                   1266 ;	assignBit
      0003F5 D2 81            [12] 1267 	setb	_P0_1
                                   1268 ;	mini51.c:353: unsigned char read = 0;
      0003F7 7E 00            [12] 1269 	mov	r6,#0x00
                                   1270 ;	mini51.c:354: addr = addr << 1; // add a blank bit
      0003F9 EF               [12] 1271 	mov	a,r7
      0003FA 2F               [12] 1272 	add	a,r7
      0003FB FF               [12] 1273 	mov	r7,a
                                   1274 ;	mini51.c:355: addr |= 1; // add the read bit
      0003FC 43 07 01         [24] 1275 	orl	ar7,#0x01
                                   1276 ;	mini51.c:357: i2cStart();
      0003FF C0 07            [24] 1277 	push	ar7
      000401 C0 06            [24] 1278 	push	ar6
      000403 12 03 7D         [24] 1279 	lcall	_i2cStart
      000406 D0 06            [24] 1280 	pop	ar6
      000408 D0 07            [24] 1281 	pop	ar7
                                   1282 ;	mini51.c:358: if (i2cSend(addr)){
      00040A 8F 82            [24] 1283 	mov	dpl,r7
      00040C C0 06            [24] 1284 	push	ar6
      00040E 12 03 8D         [24] 1285 	lcall	_i2cSend
      000411 E5 82            [12] 1286 	mov	a,dpl
      000413 D0 06            [24] 1287 	pop	ar6
      000415 60 05            [24] 1288 	jz	00102$
                                   1289 ;	mini51.c:359: read = i2cRead();
      000417 12 03 BA         [24] 1290 	lcall	_i2cRead
      00041A AE 82            [24] 1291 	mov	r6,dpl
      00041C                       1292 00102$:
                                   1293 ;	mini51.c:362: i2cStop();
      00041C C0 06            [24] 1294 	push	ar6
      00041E 12 03 86         [24] 1295 	lcall	_i2cStop
      000421 D0 06            [24] 1296 	pop	ar6
                                   1297 ;	mini51.c:364: P0_1 = 0;
                                   1298 ;	assignBit
      000423 C2 81            [12] 1299 	clr	_P0_1
                                   1300 ;	mini51.c:366: return read;
      000425 8E 82            [24] 1301 	mov	dpl,r6
                                   1302 ;	mini51.c:367: }
      000427 22               [24] 1303 	ret
                                   1304 ;------------------------------------------------------------
                                   1305 ;Allocation info for local variables in function 'initLcd'
                                   1306 ;------------------------------------------------------------
                                   1307 ;	mini51.c:380: void initLcd(){
                                   1308 ;	-----------------------------------------
                                   1309 ;	 function initLcd
                                   1310 ;	-----------------------------------------
      000428                       1311 _initLcd:
                                   1312 ;	mini51.c:381: delay(50);
      000428 90 00 32         [24] 1313 	mov	dptr,#0x0032
      00042B 12 01 E0         [24] 1314 	lcall	_delay
                                   1315 ;	mini51.c:382: lcdSendCmd(0x03);
      00042E 75 82 03         [24] 1316 	mov	dpl,#0x03
      000431 12 04 96         [24] 1317 	lcall	_lcdSendCmd
                                   1318 ;	mini51.c:383: delay(5);
      000434 90 00 05         [24] 1319 	mov	dptr,#0x0005
      000437 12 01 E0         [24] 1320 	lcall	_delay
                                   1321 ;	mini51.c:384: lcdSendCmd(0x03);
      00043A 75 82 03         [24] 1322 	mov	dpl,#0x03
      00043D 12 04 96         [24] 1323 	lcall	_lcdSendCmd
                                   1324 ;	mini51.c:385: delay(5);
      000440 90 00 05         [24] 1325 	mov	dptr,#0x0005
      000443 12 01 E0         [24] 1326 	lcall	_delay
                                   1327 ;	mini51.c:386: lcdSendCmd(0x03);
      000446 75 82 03         [24] 1328 	mov	dpl,#0x03
      000449 12 04 96         [24] 1329 	lcall	_lcdSendCmd
                                   1330 ;	mini51.c:387: lcdSendCmd(e_on | backlight_on | clear | home | cursor_off);
      00044C 75 82 2F         [24] 1331 	mov	dpl,#0x2f
      00044F 12 04 96         [24] 1332 	lcall	_lcdSendCmd
                                   1333 ;	mini51.c:392: delay(50);
      000452 90 00 32         [24] 1334 	mov	dptr,#0x0032
      000455 12 01 E0         [24] 1335 	lcall	_delay
                                   1336 ;	mini51.c:393: lcdSendData('D');
      000458 75 82 44         [24] 1337 	mov	dpl,#0x44
      00045B 12 04 B4         [24] 1338 	lcall	_lcdSendData
                                   1339 ;	mini51.c:394: lcdSendData('D');
      00045E 75 82 44         [24] 1340 	mov	dpl,#0x44
      000461 12 04 B4         [24] 1341 	lcall	_lcdSendData
                                   1342 ;	mini51.c:395: lcdSendData('D');
      000464 75 82 44         [24] 1343 	mov	dpl,#0x44
                                   1344 ;	mini51.c:404: }
      000467 02 04 B4         [24] 1345 	ljmp	_lcdSendData
                                   1346 ;------------------------------------------------------------
                                   1347 ;Allocation info for local variables in function 'lcdSendNibble'
                                   1348 ;------------------------------------------------------------
                                   1349 ;nibble                    Allocated to registers r7 
                                   1350 ;------------------------------------------------------------
                                   1351 ;	mini51.c:406: void lcdSendNibble(unsigned char nibble){
                                   1352 ;	-----------------------------------------
                                   1353 ;	 function lcdSendNibble
                                   1354 ;	-----------------------------------------
      00046A                       1355 _lcdSendNibble:
      00046A AF 82            [24] 1356 	mov	r7,dpl
                                   1357 ;	mini51.c:408: nibble |= rs;
      00046C E5 1D            [12] 1358 	mov	a,_rs
      00046E 42 07            [12] 1359 	orl	ar7,a
                                   1360 ;	mini51.c:409: i2cSendData(LCD_ADDR, (nibble | 0x04)); // nibble, enable high
      000470 74 04            [12] 1361 	mov	a,#0x04
      000472 4F               [12] 1362 	orl	a,r7
      000473 F5 1C            [12] 1363 	mov	_i2cSendData_PARM_2,a
      000475 75 82 27         [24] 1364 	mov	dpl,#0x27
      000478 C0 07            [24] 1365 	push	ar7
      00047A 12 03 D9         [24] 1366 	lcall	_i2cSendData
                                   1367 ;	mini51.c:410: delay(1);
      00047D 90 00 01         [24] 1368 	mov	dptr,#0x0001
      000480 12 01 E0         [24] 1369 	lcall	_delay
      000483 D0 07            [24] 1370 	pop	ar7
                                   1371 ;	mini51.c:411: i2cSendData(LCD_ADDR, (nibble | ~0x04)); // nibble, enable low
      000485 74 FB            [12] 1372 	mov	a,#0xfb
      000487 4F               [12] 1373 	orl	a,r7
      000488 F5 1C            [12] 1374 	mov	_i2cSendData_PARM_2,a
      00048A 75 82 27         [24] 1375 	mov	dpl,#0x27
      00048D 12 03 D9         [24] 1376 	lcall	_i2cSendData
                                   1377 ;	mini51.c:412: delay(1);
      000490 90 00 01         [24] 1378 	mov	dptr,#0x0001
                                   1379 ;	mini51.c:413: }
      000493 02 01 E0         [24] 1380 	ljmp	_delay
                                   1381 ;------------------------------------------------------------
                                   1382 ;Allocation info for local variables in function 'lcdSendCmd'
                                   1383 ;------------------------------------------------------------
                                   1384 ;cmd                       Allocated to registers r7 
                                   1385 ;------------------------------------------------------------
                                   1386 ;	mini51.c:415: void lcdSendCmd(unsigned char cmd){
                                   1387 ;	-----------------------------------------
                                   1388 ;	 function lcdSendCmd
                                   1389 ;	-----------------------------------------
      000496                       1390 _lcdSendCmd:
      000496 AF 82            [24] 1391 	mov	r7,dpl
                                   1392 ;	mini51.c:416: rs = 0;
      000498 75 1D 00         [24] 1393 	mov	_rs,#0x00
                                   1394 ;	mini51.c:419: lcdSendNibble(cmd & 0xF0);
      00049B 74 F0            [12] 1395 	mov	a,#0xf0
      00049D 5F               [12] 1396 	anl	a,r7
      00049E F5 82            [12] 1397 	mov	dpl,a
      0004A0 C0 07            [24] 1398 	push	ar7
      0004A2 12 04 6A         [24] 1399 	lcall	_lcdSendNibble
      0004A5 D0 07            [24] 1400 	pop	ar7
                                   1401 ;	mini51.c:422: lcdSendNibble((cmd << 4) & 0xF0);
      0004A7 EF               [12] 1402 	mov	a,r7
      0004A8 C4               [12] 1403 	swap	a
      0004A9 54 F0            [12] 1404 	anl	a,#0xf0
      0004AB FF               [12] 1405 	mov	r7,a
      0004AC 74 F0            [12] 1406 	mov	a,#0xf0
      0004AE 5F               [12] 1407 	anl	a,r7
      0004AF F5 82            [12] 1408 	mov	dpl,a
                                   1409 ;	mini51.c:424: }
      0004B1 02 04 6A         [24] 1410 	ljmp	_lcdSendNibble
                                   1411 ;------------------------------------------------------------
                                   1412 ;Allocation info for local variables in function 'lcdSendData'
                                   1413 ;------------------------------------------------------------
                                   1414 ;dataa                     Allocated to registers r7 
                                   1415 ;------------------------------------------------------------
                                   1416 ;	mini51.c:426: void lcdSendData(unsigned char dataa){
                                   1417 ;	-----------------------------------------
                                   1418 ;	 function lcdSendData
                                   1419 ;	-----------------------------------------
      0004B4                       1420 _lcdSendData:
      0004B4 AF 82            [24] 1421 	mov	r7,dpl
                                   1422 ;	mini51.c:427: rs = 1;
      0004B6 75 1D 01         [24] 1423 	mov	_rs,#0x01
                                   1424 ;	mini51.c:430: lcdSendNibble(dataa & 0xF0);
      0004B9 74 F0            [12] 1425 	mov	a,#0xf0
      0004BB 5F               [12] 1426 	anl	a,r7
      0004BC F5 82            [12] 1427 	mov	dpl,a
      0004BE C0 07            [24] 1428 	push	ar7
      0004C0 12 04 6A         [24] 1429 	lcall	_lcdSendNibble
      0004C3 D0 07            [24] 1430 	pop	ar7
                                   1431 ;	mini51.c:433: lcdSendNibble((dataa << 4) & 0xF0);
      0004C5 EF               [12] 1432 	mov	a,r7
      0004C6 C4               [12] 1433 	swap	a
      0004C7 54 F0            [12] 1434 	anl	a,#0xf0
      0004C9 FF               [12] 1435 	mov	r7,a
      0004CA 74 F0            [12] 1436 	mov	a,#0xf0
      0004CC 5F               [12] 1437 	anl	a,r7
      0004CD F5 82            [12] 1438 	mov	dpl,a
                                   1439 ;	mini51.c:435: }
      0004CF 02 04 6A         [24] 1440 	ljmp	_lcdSendNibble
                                   1441 	.area CSEG    (CODE)
                                   1442 	.area CONST   (CODE)
                                   1443 	.area XINIT   (CODE)
                                   1444 	.area CABS    (ABS,CODE)
